:020000040000FA
:0400000059EF3FF085
:107EB20000015CEF3FF0000E936E000E066E000EA6
:107EC200056E05C001F006C002F087EC3FF0250EFA
:107ED200046E870E036E8C0EE82EFED7032EFCD79F
:107EE200042EFAD7054A062A06BE81EF3FF0065055
:107EF20009E10A0E055CD8A081EF3FF083EF3FF065
:107F020062EF3FF05EEF3FF000EF00F0000E8A6E8E
:107F120001500210D8A490EF3FF092EF3FF094EF9F
:107F22003FF03F0E8A6E01040210D8A49BEF3FF08F
:107F32009DEF3FF09FEF3FF0060E8A6E020E011892
:107F42000210D8A4A7EF3FF0A9EF3FF0ABEF3FF04C
:107F52005B0E8A6E030E01180210D8A4B3EF3FF035
:107F6200B5EF3FF0B7EF3FF04F0E8A6E040E0118E7
:107F72000210D8A4BFEF3FF0C1EF3FF0C3EF3FF0D4
:107F8200660E8A6E050E01180210D8A4CBEF3FF0E0
:107F9200CDEF3FF0CFEF3FF06D0E8A6E060E011867
:107FA2000210D8A4D7EF3FF0D9EF3FF0DBEF3FF05C
:107FB2007D0E8A6E070E01180210D8A4E3EF3FF07F
:107FC200E5EF3FF0E7EF3FF0070E8A6E080E01186B
:107FD2000210D8A4EFEF3FF0F1EF3FF0F3EF3FF0E4
:107FE2007F0E8A6E090E01180210D8A4FBEF3FF033
:0E7FF200FDEF3FF0FFEF3FF0670E8A6E1200CA
:020000040020DA
:08000000FFFFFFFFFFFFFFFF00
:020000040030CA
:0E000000040E1F1FFF8381FF0FC00FE00F4093
:00000001FF
